:0300000002089E55
:0C089E00787FE4F6D8FD7581200208E5A3
:101091002D20002B20002054454D504552415455E0
:0D10A10052453A20202020000000000000F1
:03113A0081000031
:03001600C2AF2254
:100CAD00786C7C007DFE7BFF7A1079977E007F1239
:100CBD001203AB1200161212051210FE7F801211D4
:100CCD00C07BFE7A00796C7D10120EA97FE87E0341
:100CDD001210737FC01211C0120A0912068D121262
:060CED0005120F9E80E6D7
:10107300D3EF9400EE940040147D6E7C00ED1D7060
:0D108300011CED4C70F7EF1F70E61E80E3BE
:01109000223D
:10105400C2A27F647E00EF1F70011EEF4E70F7D2B4
:0E106400A27E007F04EF1F70011EEF4E70F79A
:01107200225B
:100FC600C2A20FBF0000D2A20FBF00000FBF0000D9
:100FD600A2A292047E007F08EF1F70011EEF4E70E2
:030FE600F7A2046B
:010FE90022E5
:100FEA00E4FDFBFA120FC6E433FFC43333335480F3
:100FFA00FEEDC3134EFD0BBB00010AEB64084A70F9
:03100A00E3AF054C
:01100D0022C0
:0C0AD7001210547F017E001210737FCCBF
:020AE300A90761
:100AE500E4FFE9139204E9C313F930041BC2A20B16
:100AF500BB00000BBB0000D2A27A007B08EB1B7089
:100B0500011AEB4A70F7801BC2A27A007B08EB1B27
:100B150070011AEB4A70F7D2A20BBB00010A0BBB9E
:080B250000010A0FEFB408BA49
:010B2D0022A5
:08000300120AD77FBE020AE3D6
:08120500120AD77F44020AE33C
:100A0900120003120FEAAC07120FEAEFFEAD04ED74
:100A1900FF787EEEF208EFF2AC06EC120221E4FB5D
:100A2900FA7980783D12011678801204C2E4FFFE3B
:100A39007DC87C427880E2FB08E2F908E2FA08E224
:100A4900CBF8120116D3787FE2940018E2648094FF
:100A590080E4FBFAF94004783F800278BF12002550
:0A0A690012025A787EEEF208EFF256
:010A73002260
:1010FE007F011211C07F381211C07F0F1211C07FF5
:04110E00060211C004
:0D0EA9007886EBF208EAF208E9F208EDF2B3
:100EB600E408F27889E2FF08E2FEC39F501D7886B7
:100EC600E2FB08E2FA08E2F98E827583001203D18A
:0B0ED600FF1211CA788AE204F280D8F3
:010EE10022EE
:07068D00787EEEF208EFF2A7
:1006940078817C007DFE7BFF7A1079A97E007F053E
:1006A4001203AB787EE2FE08E2FF1211A9AB07AA9F
:1006B400067C277D101204107881EFF27C277D10D0
:1006C400AF03AE021204107E037FE8CFCDCFCECCB1
:1006D400CE1204107882EFF27C037DE8AF03AE0201
:1006E4001204107E007F64CFCDCFCECCCE12041086
:1006F4007883EFF27C007D64AF03AE021204107EB7
:10070400007F0ACFCDCFCECCCE1204107884EFF286
:10071400AE02AF037C007D0A1204107885EDF27FEF
:10072400C31211C0C3787EE2648094807BFF5006BC
:100734007A10799180047A1079947D02120EA97846
:1007440081E260062430FF1211CA78807401F278C5
:1007540080E2FF6405601D74812FF8E22430FF12EB
:1007640011CA7880E2B402057F2E1211CA7880E2A1
:0407740004F280DB30
:01077800225E
:0810E500C2B6D2B47F967E0072
:1010ED00D3EF9400EE94004007EF1F70F31E80F0D5
:0110FD0022D0
:0A11C0008F80C2B51210E5C2B42200
:0A11CA008F80D2B51210E5C2B422E6
:0B11B500303132333435363738390022
:03113D008106E642
:100D370012111212118E1211FC120BCE1211E83081
:100D470091FD12099B78020808E2FE08E2FF1209EA
:100D57002A1211FC7FF47E011210737802E2FC085C
:100D6700E2FD08E2FE08E2FFEC4D4E4F60CB120CAD
:030D77001980C61A
:0A0F1600C2B68F807F05E4FDFCFEEB
:100F2000D3EF9400EE9400401EED246EFBE43CFAF7
:100F3000D3EB9400EA94004007EB1B70F31A80F0A7
:070F4000EF1F70DC1E80D9D9
:010F47002287
:0A11D400C2B5120F16D2B4C2B42245
:0A11DE00D2B5120F16D2B4C2B4222B
:101112007F381211D47F0C1211D47F061211D47FA2
:04112200010211D4E1
:100BCE007FC01211D47F641211DE7F691211DE7F95
:100BDE00731211DE7F741211DE7F611211DE7F6ED1
:100BEE001211DE7F631211DE7F651211DE7F3A1263
:100BFE0011DE7FCC1211D47F2E1211DE7FCE121198
:0B0C0E00D47F631211DE7F6D0211DE47
:0A11E800D2907F01120F1CC290226A
:0911FC00C290C291E47801F222D4
:10099B00D28E2091FDC28EAD8BAF8DEFFE7C00E42D
:1009AB002DFFEC3EAB07FA749A2BFB74033AFA78E3
:1009BB0001E2FF7E007C037DE81203FEEF2BFFEECE
:1009CB003AFEE4FCFD78021204C2758B66758DFC51
:1009DB007F1E7E00121073E47F7D7E0DFDFC78027E
:1009EB00E2FB08E2F908E2FA08E2CBF8120465E44C
:0E09FB007B207A4EF9F8120CF378020204C247
:04092A00AB07AA0667
:10092E007C037DE8120410786CEFF27C007D64AFDE
:10093E0003AE021204107C007D0A120410786DEDD5
:10094E00F27C007D0AAF03AE021204107C007D0A19
:10095E00120410786EEDF2AE02AF037C007D0A1227
:10096E000410A9057FC91211D4786CE29011B593C9
:10097E00FF1211DE08E293FF1211DE08E293FF125E
:0D098E0011DE7FCD1211D4E993FF0211DEBE
:100C1900786C74E7F2F2C2A37D0F7C007F207E031B
:100C2900120F20D2A37F207E03120F20C2A37FB010
:100C39007E04120F20D2A37F147E05120F2078069E
:100C4900E2FF786CE2C39F5006121112120F9E78D0
:0A0C59006CE214F2E2D3940050BCE8
:010C6300226E
:0E118E00758910758B66758DFCD2ABD2AF22C1
:03001B00020F4889
:100F4800C0E0C0D075D000C000C28F758B66758DAB
:100F5800FC7801E204F2E2B4120AC28E758B66755F
:0B0F68008DFCE4F2D000D0D0D0E032CD
:10114C0020202D20202D20200020203A20203A2065
:02115C00200071
:09114000871B17060B140D0E06A7
:10080D0012112612000E7BFF7A11794C7D017F01AA
:10081D00120F737BFF7A1179557D017F02120F73D1
:10082D0012059C120779781BE2FB7A00787074022E
:10083D00F27D017F011210CB781CE2FB7A007870FB
:10084D007402F27D047F011210CB781DE2FB7A0059
:10085D0078707402F27D077F011210CB781EE2FBD7
:10086D007A0078707402F27D01FF1210CB781FE2CE
:10087D00FB7A0078707402F27D04FF1210CB7820A1
:10088D00E2FB7A0078707402F27D07FF1210CB80C4
:01089D0092C8
:05000E00C2A4C297220C
:060A740025F0FDEC3EFC44
:090A7A00786CECF208EDF2AB0718
:100A8300D2A4E4FD74017E00A805088005C333CE1B
:100A930033CED8F9FFEBF582EF558224FF9296D23D
:100AA30097C2970DEDB408DCE4FD74017E00A80540
:100AB300088005C333CE33CED8F9FF786CE25EFEEF
:100AC30008E25F4E24FF9296D297C2970DEDB408C9
:030AD300D9C2A4E1
:010AD60022FD
:020B2E00AD0711
:100B3000E4F9ED4401FDD2A4E4FB74017E00A803B6
:100B4000088005C333CE33CED8F9FFEDF582EF55DB
:100B50008224FF9296C297D2970BEBB408DCE4FB99
:100B6000D297C29730960D7401A803088002C33350
:0F0B7000D8FC49F90BEBB408E7C2A4C296AF0159
:010B7F002253
:10059C00E4FDFC7F8E120A7A781BE2FD75F00A846A
:1005AC0075F010A4FFAEF0ED75F00A84EF7F8C129D
:1005BC000A74781CE2FD75F00A8475F010A4FFAE85
:1005CC00F0ED75F00A847C00EF7F88120A74781DB8
:1005DC00E2FD75F00A8475F010A4FFAEF0ED75F035
:1005EC000A847C00EF25F0FDEC3EFC7F86120A7A33
:1005FC00781EE2FD75F00A8475F010A4FFAEF0EDE4
:10060C0075F00A847C00EF25F0FDEC3EFC7F841233
:10061C000A7A781FE2FD75F00A8475F010A4FFAE1B
:10062C00F0ED75F00A847C00EF25F0FDEC3EFC7FCC
:10063C0082120A7A7820E2FD75F00A8475F010A413
:10064C00FFAEF0ED75F00A847C00EF25F0FDEC3E7A
:10065C00FC7F80120A7A7821E2FD75F00A8475F02D
:10066C0010A4FFAEF0ED75F00A847C00EF25F0FDD0
:10067C00EC3EFC7F8A120A7A7D807C007F8E020A17
:01068C007AF3
:100779007F8C120B2EEFC4540F75F00AA4FEEF54B0
:100789000F2E781BF27F88120B2EEFC4540F75F0D1
:100799000AA4FEEF540F2E781CF27F86120B2EEF5F
:1007A900C4540F75F00AA4FEEF540F2E781DF27F82
:1007B90084120B2EEFC4540F75F00AA4FEEF540FE8
:1007C9002E781EF27F82120B2EEFC4540F75F00A99
:1007D900A4FEEF540F2E781FF27F80120B2EEFC468
:1007E900540F75F00AA4FEEF540F2E7820F27F8A79
:1007F900120B2EEFC4540F75F00AA4FEEF540F2EFE
:030809007821F261
:01080C0022C9
:06117F00C2B68F80D2B45D
:081185007F027EEFDEFEDFFCBD
:01118D00223F
:0A11F200C2B512117FC2B4021185CC
:10100E00E2FC08E2FDCFCDCFCECCCE1204107C0098
:09101E007D0A120410ED2430FFDC
:0A102700D2B512117FC2B402118588
:0510AE00EAF208EBF27C
:1010B300AE07EEB40104ED148007EEB40209ED248B
:0810C3003F4480FF1211F222EC
:101126007F381211F27F0C1211F27F061211F27F34
:04113600010211F2AF
:08120D001210B3AF0302102719
:0A0F7300786CEBF208EAF208E9F2EC
:100F7D001210B3E4FD786CE2FB08E2FA08E2F98D99
:100F8D00827583001203D1FF60061210270D80E5D4
:010F9D002231
:0C0D7A007F0AEA24FFFDE434FFFC7E0049
:0D0D86007871EEF208EFF208ECF208EDF2E1
:100D93007F017E00E4FBEBFDD37874E29D7480F564
:100DA300F018E2648095F0400D7871E2FC08E2FDF2
:060DB3001203FE0B80E0BC
:010DB9002217
:0210CB00786E3D
:1010CD001210AE08E2FAEAD39400400B120D7A78B2
:0710DD006E12100E1A80EFE5
:0110E40022E9
:100DBA001210B3C3EA64809480400E7F2B1210276E
:100DCA00780FEAF208EBF280117F2D121027C3E4A4
:100DDA009BFEE49A780FF208CEF2780EE2FAEAD392
:0F0DEA009400400B120D7A780F12100E1A80EF42
:010DF90022D7
:020DFA0078136C
:100DFC001210AE08E2FAEAD39400402C7F10120DC8
:100E0C007C7813E2FC08E2FDCFCDCFCECCCE120421
:100E1C0010EF540FFEC3940AEE50042430800224C9
:080E2C0037FF1210271A80CED7
:010E3400229B
:020E350078182B
:100E37001210AE08E2FAEAD39400402BEA24FFFD31
:100E4700E434FFFC7F027E00120D867818E2FC086E
:100E5700E2FDCFCDCFCECCCE120410EF540124301B
:070E6700FF1210271A80CFD3
:010E6E002261
:101031002057454C434F4D4520544F205553452093
:10104100004D4144452042593A207A7A68206C6328
:0310510073200009
:100B800078497C007DFE7BFF7A1079317E007F11F1
:100B90001203AB785A7C007DFE7BFF7A1079427E8F
:100BA000007F121203AB1210FE7F801211C07BFE79
:100BB0007A0079497D0F120EA97FC01211C07BFE09
:0E0BC0007A00795A7D12120EA9120F9E80FB48
:03121C00C2A0224B
:03121F00D2A02238
:10116F003F065B4F666D7D077F6FE4C0E0C0E032E6
:02114900C100E3
:0100190022C4
:100F9E0012121512119CC2A67580FED2A7C2A77599
:100FAE00803FD2A6E47826F2300105120EE2C2018D
:080FBE003002F5120E6F80F005
:100E6F007826E224F8601E24F0601524FC601B2411
:100E7F00DA601C24F8601D243E701C120D37801799
:100E8F0012080D801212121C800D12121F800812F0
:0A0E9F000CAD8003121179C202228B
:03000B0002115E81
:10115E00C0E0C0D075D0087823E204F2D0D0D0E041
:01116E00324E
:03001300020C6478
:0B0C6400C0E0C0D075D000C000C00789
:100C6F0030002C7823E2FFC3943F5009EFC3942147
:100C7F00400318E4F27822E22428F8EFF27823E414
:100C8F00F218E204F2E2B4210CD201E4F280067809
:050C9F0023E4F2D20085
:090CA400D007D000D0D0D0E0321E
:100EE2007E01E4FD7C0174282EF8E2D394074004CD
:100EF200EF4480FFECC394085004EFC313FF0E0CC1
:100F0200ECB409E274242DF8EFF2E4FF0DEDB40421
:030F1200D3D20235
:010F150022B9
:0D119C00758902E4F58CF58AD2A9D28C2267
:07121500D28AD2AAD2AF2257
:10001E000202C6E86480F8E933E83360110460F048
:10002E00ED33EC337009E8FCE9FDEAFEEBFF220448
:10003E0060DED3EB9FEA9EE99DE8C2E78CF0C2F743
:10004E0095F0400CE8CCF8E9CDF9EACEFAEBCFFB0F
:10005E0012029185D0F05804700320D5B3E80470D5
:10006E00075002B2D50202D092D5EC0460F7E4CC70
:10007E00C0E0C398F8603B94186008400DD0E0FBD8
:10008E000202A8E4FBFAC9FC8028E830E406E4C9C1
:10009E00FBE4CAFCE830E305E4C9CACBFCE854072C
:1000AE006010F8C3E913F9EA13FAEB13FBEC13FC37
:1000BE00D8F130F52FC3E49CFCEF9BFFEE9AFEEDDA
:1000CE0099FDD0E0FBEF4E4D4C701222DB03020285
:1000DE00CDEC2CFCEF33FFEE33FEED33FDED30E7D0
:1000EE00EB0202A8EF2BFFEE3AFEED39FDD0E0FB5E
:1000FE0050130BBB00030202D0ED13FDEE13FEEF07
:08010E0013FFEC13FC0202A830
:10011600EC4D6011E8497017ED33EC3304600DE4E3
:10012600FCFFFEFD22E933E8330470F80202C61232
:10013600029158046009E4CC248150062850090233
:1001460002D02840030202CDC0E0EB4A7044B980D9
:1001560006D0E0FB0202BCEF4E701CBD8008EBFF30
:10016600EAFEE9FD80EBE98DF0A4FEE5F00201FF71
:10017600E9CDF9EAFEEBFFEF89F0A4FCE5F0CE89C4
:10018600F0A42EFFE435F0CD89F0A42DFEE435F081
:100196008067EF4E7005BD80D780C3EF8BF0A4ACAF
:1001A600F0EE8BF0A42CFCE435F0F8EF8AF0A42CEA
:1001B600E5F038FCE433CB8DF0A42CFCE5F03BF8FD
:1001C600EE8AF0A42CFCE5F038F8E433CF89F0A4ED
:1001D6002CFCE5F038CF3400CE89F0A42FFFE5F0F3
:1001E6003EFEE433C98DF0A42EFEE5F039CD8AF04B
:1001F600A42FFFE5F03EFEE43DFD33D0E0FB5007C3
:100206000BBB000F0202D0EC2CFCEF33FFEE33FEEB
:06021600ED33FD0202A819
:10021C0075F020800E75F010800575F0087D007E5D
:10022C00007F003392D530D5031204B4EC33401068
:10023C00EF33FFEE33FEED33FDEC33FCD5F0ED2266
:0E024C00E5F0247EA2D513CC92E7CDCEFF22A2
:10025A00EDD2E7CD33EC3392D524814006E4FFFE9C
:10026A00FDFC22FCE4CFCECDCC24E0501174FF80FB
:10027A00EDC3CC13CCCD13CDCE13CECF13CF047098
:07028A00F030D5DE0204B4E0
:10029100E9D2E7C933E833F892D5EDD2E7CD33ECB3
:0702A10033FC5002B2D5222C
:1002A800EC30E7100FBF000C0EBE00080DBD0004B7
:1002B8000BEB6014A2D5EB13FCED92E7FD2274FF63
:1002C800FCFDFEFF22E480F8A2D574FF13FC7D80BC
:0302D800E480EFD0
:1008AA00020B80E493A3F8E493A34003F68001F2D9
:1008BA0008DFF48029E493A3F85407240CC8C3334F
:1008CA00C4540F4420C8834004F456800146F6DF1E
:1008DA00E4800B010204081020408090113AE47E63
:1008EA00019360BCA3FF543F30E509541FFEE49313
:1008FA00A360010ECF54C025E060A840B8E493A3DA
:10090A00FAE493A3F8E493A3C8C582C8CAC583CA04
:10091A00F0A3C8C582C8CAC583CADFE9DEE780BEBC
:01114B0000A3
:1002DB00E709F608DFFA8046E709F208DFFA803E05
:1002EB0088828C83E709F0A3DFFA8032E309F608F2
:1002FB00DFFA8078E309F208DFFA807088828C835A
:10030B00E309F0A3DFFA806489828A83E0A3F6080D
:10031B00DFFA805889828A83E0A3F208DFFA804CE7
:10032B0080D280FA80C680D4806980F280338010BE
:10033B0080A680EA809A80A880DA80E280CA803327
:10034B0089828A83ECFAE493A3C8C582C8CCC5839F
:10035B00CCF0A3C8C582C8CCC583CCDFE9DEE7806F
:10036B000D89828A83E493A3F608DFF9ECFAA9F0EE
:10037B00EDFB2289828A83ECFAE0A3C8C582C8CC44
:10038B00C583CCF0A3C8C582C8CCC583CCDFEADE5D
:10039B00E880DB89828A83E493A3F208DFF980CCBF
:1003AB0088F0EF60010E4E60C388F0ED2402B404B8
:1003BB000050B9F582EB2402B4040050AF2323455F
:0603CB00822390032B7356
:1003D100BB010CE58229F582E5833AF583E02250E1
:1003E10006E92582F8E622BBFE06E92582F8E2222B
:0D03F100E58229F582E5833AF583E4932245
:1003FE00EF8DF0A4A8F0CF8CF0A428CE8DF0A42E13
:02040E00FE22CC
:10041000BC000BBE0029EF8DF084FFADF022E4CCD0
:10042000F875F008EF2FFFEE33FEEC33FCEE9DEC99
:10043000984005FCEE9DFE0FD5F0E9E4CEFD22EDDF
:10044000F8F5F0EE8420D21CFEADF075F008EF2F29
:10045000FFED33FD4007985006D5F0F222C398FD1A
:050460000FD5F0EA22B7
:10046500E88FF0A4CC8BF0A42CFCE98EF0A42CFC36
:100475008AF0EDA42CFCEA8EF0A4CDA8F08BF0A4B4
:100485002DCC3825F0FDE98FF0A42CCD35F0FCEB13
:100495008EF0A4FEA9F0EB8FF0A4CFC5F02ECD39D8
:0F04A500FEE43CFCEAA42DCE35F0FDE43CFC2245
:100CF300C2D5E830E70FB2D5E4C39BFBE49AFAE42C
:100D030099F9E498F8EC30E717B2D5120D291205DA
:100D13000AE4C39BFBE49AFAE499F9E498F88003A4
:100D230012050A30D50DE4C39FFFE49EFEE49DFD4A
:040D3300E49CFC221E
:0E04B400C3E49FFFE49EFEE49DFDE49CFC2259
:0C04C200ECF208EDF208EEF208EFF22276
:0C11A900EE30E707C3E49FFFE49EFE2247
:1004CE0075F008758200EF2FFFEE33FECD33CDCCE5
:1004DE0033CCC58233C5829BED9AEC99E582984068
:1004EE000CF582EE9BFEED9AFDEC99FC0FD5F0D645
:1004FE00E4CEFBE4CDFAE4CCF9A88222B800C1B96F
:10050E000059BA002DEC8BF084CFCECDFCE5F0CBAC
:10051E00F97818EF2FFFEE33FEED33FDEC33FCEBE5
:10052E0033FB10D703994004EB99FB0FD8E5E4F9A0
:10053E00FA227818EF2FFFEE33FEED33FDEC33FC8D
:10054E00C933C910D7059BE99A4007EC9BFCE99A81
:10055E00F90FD8E0E4C9FAE4CCFB2275F010EF2FC6
:10056E00FFEE33FEED33FDCC33CCC833C810D707C6
:10057E009BEC9AE899400AED9BFDEC9AFCE899F801
:0E058E000FD5F0DAE4CDFBE4CCFAE4C8F92294
:00000001FF
